{
    "_format": "hh-sol-artifact-1",
    "contractName": "NFTToken",
    "sourceName": "contracts/NFTToken.sol",
    "abi": [
        {
            "inputs": [],
            "stateMutability": "nonpayable",
            "type": "constructor"
        },
        {
            "anonymous": false,
            "inputs": [
                {
                    "indexed": true,
                    "internalType": "address",
                    "name": "account",
                    "type": "address"
                },
                {
                    "indexed": true,
                    "internalType": "address",
                    "name": "operator",
                    "type": "address"
                },
                {
                    "indexed": false,
                    "internalType": "bool",
                    "name": "approved",
                    "type": "bool"
                }
            ],
            "name": "ApprovalForAll",
            "type": "event"
        },
        {
            "anonymous": false,
            "inputs": [
                {
                    "indexed": true,
                    "internalType": "address",
                    "name": "previousOwner",
                    "type": "address"
                },
                {
                    "indexed": true,
                    "internalType": "address",
                    "name": "newOwner",
                    "type": "address"
                }
            ],
            "name": "OwnershipTransferred",
            "type": "event"
        },
        {
            "anonymous": false,
            "inputs": [
                {
                    "indexed": true,
                    "internalType": "address",
                    "name": "operator",
                    "type": "address"
                },
                {
                    "indexed": true,
                    "internalType": "address",
                    "name": "from",
                    "type": "address"
                },
                {
                    "indexed": true,
                    "internalType": "address",
                    "name": "to",
                    "type": "address"
                },
                {
                    "indexed": false,
                    "internalType": "uint256[]",
                    "name": "ids",
                    "type": "uint256[]"
                },
                {
                    "indexed": false,
                    "internalType": "uint256[]",
                    "name": "values",
                    "type": "uint256[]"
                }
            ],
            "name": "TransferBatch",
            "type": "event"
        },
        {
            "anonymous": false,
            "inputs": [
                {
                    "indexed": true,
                    "internalType": "address",
                    "name": "operator",
                    "type": "address"
                },
                {
                    "indexed": true,
                    "internalType": "address",
                    "name": "from",
                    "type": "address"
                },
                {
                    "indexed": true,
                    "internalType": "address",
                    "name": "to",
                    "type": "address"
                },
                {
                    "indexed": false,
                    "internalType": "uint256",
                    "name": "id",
                    "type": "uint256"
                },
                {
                    "indexed": false,
                    "internalType": "uint256",
                    "name": "value",
                    "type": "uint256"
                }
            ],
            "name": "TransferSingle",
            "type": "event"
        },
        {
            "anonymous": false,
            "inputs": [
                {
                    "indexed": false,
                    "internalType": "string",
                    "name": "value",
                    "type": "string"
                },
                {
                    "indexed": true,
                    "internalType": "uint256",
                    "name": "id",
                    "type": "uint256"
                }
            ],
            "name": "URI",
            "type": "event"
        },
        {
            "inputs": [
                {
                    "internalType": "address",
                    "name": "account",
                    "type": "address"
                },
                {
                    "internalType": "uint256",
                    "name": "id",
                    "type": "uint256"
                }
            ],
            "name": "balanceOf",
            "outputs": [
                {
                    "internalType": "uint256",
                    "name": "",
                    "type": "uint256"
                }
            ],
            "stateMutability": "view",
            "type": "function"
        },
        {
            "inputs": [
                {
                    "internalType": "address[]",
                    "name": "accounts",
                    "type": "address[]"
                },
                {
                    "internalType": "uint256[]",
                    "name": "ids",
                    "type": "uint256[]"
                }
            ],
            "name": "balanceOfBatch",
            "outputs": [
                {
                    "internalType": "uint256[]",
                    "name": "",
                    "type": "uint256[]"
                }
            ],
            "stateMutability": "view",
            "type": "function"
        },
        {
            "inputs": [
                {
                    "internalType": "uint256",
                    "name": "id",
                    "type": "uint256"
                }
            ],
            "name": "exists",
            "outputs": [
                {
                    "internalType": "bool",
                    "name": "",
                    "type": "bool"
                }
            ],
            "stateMutability": "view",
            "type": "function"
        },
        {
            "inputs": [
                {
                    "internalType": "address",
                    "name": "account",
                    "type": "address"
                },
                {
                    "internalType": "address",
                    "name": "operator",
                    "type": "address"
                }
            ],
            "name": "isApprovedForAll",
            "outputs": [
                {
                    "internalType": "bool",
                    "name": "",
                    "type": "bool"
                }
            ],
            "stateMutability": "view",
            "type": "function"
        },
        {
            "inputs": [
                {
                    "internalType": "address",
                    "name": "account",
                    "type": "address"
                },
                {
                    "internalType": "uint256",
                    "name": "id",
                    "type": "uint256"
                },
                {
                    "internalType": "uint256",
                    "name": "amount",
                    "type": "uint256"
                },
                {
                    "internalType": "bytes",
                    "name": "data",
                    "type": "bytes"
                }
            ],
            "name": "mint",
            "outputs": [],
            "stateMutability": "nonpayable",
            "type": "function"
        },
        {
            "inputs": [
                {
                    "internalType": "address",
                    "name": "to",
                    "type": "address"
                },
                {
                    "internalType": "uint256[]",
                    "name": "ids",
                    "type": "uint256[]"
                },
                {
                    "internalType": "uint256[]",
                    "name": "amounts",
                    "type": "uint256[]"
                },
                {
                    "internalType": "bytes",
                    "name": "data",
                    "type": "bytes"
                }
            ],
            "name": "mintBatch",
            "outputs": [],
            "stateMutability": "nonpayable",
            "type": "function"
        },
        {
            "inputs": [],
            "name": "owner",
            "outputs": [
                {
                    "internalType": "address",
                    "name": "",
                    "type": "address"
                }
            ],
            "stateMutability": "view",
            "type": "function"
        },
        {
            "inputs": [],
            "name": "renounceOwnership",
            "outputs": [],
            "stateMutability": "nonpayable",
            "type": "function"
        },
        {
            "inputs": [
                {
                    "internalType": "address",
                    "name": "from",
                    "type": "address"
                },
                {
                    "internalType": "address",
                    "name": "to",
                    "type": "address"
                },
                {
                    "internalType": "uint256[]",
                    "name": "ids",
                    "type": "uint256[]"
                },
                {
                    "internalType": "uint256[]",
                    "name": "amounts",
                    "type": "uint256[]"
                },
                {
                    "internalType": "bytes",
                    "name": "data",
                    "type": "bytes"
                }
            ],
            "name": "safeBatchTransferFrom",
            "outputs": [],
            "stateMutability": "nonpayable",
            "type": "function"
        },
        {
            "inputs": [
                {
                    "internalType": "address",
                    "name": "from",
                    "type": "address"
                },
                {
                    "internalType": "address",
                    "name": "to",
                    "type": "address"
                },
                {
                    "internalType": "uint256",
                    "name": "id",
                    "type": "uint256"
                },
                {
                    "internalType": "uint256",
                    "name": "amount",
                    "type": "uint256"
                },
                {
                    "internalType": "bytes",
                    "name": "data",
                    "type": "bytes"
                }
            ],
            "name": "safeTransferFrom",
            "outputs": [],
            "stateMutability": "nonpayable",
            "type": "function"
        },
        {
            "inputs": [
                {
                    "internalType": "address",
                    "name": "operator",
                    "type": "address"
                },
                {
                    "internalType": "bool",
                    "name": "approved",
                    "type": "bool"
                }
            ],
            "name": "setApprovalForAll",
            "outputs": [],
            "stateMutability": "nonpayable",
            "type": "function"
        },
        {
            "inputs": [
                {
                    "internalType": "bytes4",
                    "name": "interfaceId",
                    "type": "bytes4"
                }
            ],
            "name": "supportsInterface",
            "outputs": [
                {
                    "internalType": "bool",
                    "name": "",
                    "type": "bool"
                }
            ],
            "stateMutability": "view",
            "type": "function"
        },
        {
            "inputs": [
                {
                    "internalType": "uint256",
                    "name": "id",
                    "type": "uint256"
                }
            ],
            "name": "totalSupply",
            "outputs": [
                {
                    "internalType": "uint256",
                    "name": "",
                    "type": "uint256"
                }
            ],
            "stateMutability": "view",
            "type": "function"
        },
        {
            "inputs": [
                {
                    "internalType": "address",
                    "name": "newOwner",
                    "type": "address"
                }
            ],
            "name": "transferOwnership",
            "outputs": [],
            "stateMutability": "nonpayable",
            "type": "function"
        },
        {
            "inputs": [
                {
                    "internalType": "uint256",
                    "name": "",
                    "type": "uint256"
                }
            ],
            "name": "uri",
            "outputs": [
                {
                    "internalType": "string",
                    "name": "",
                    "type": "string"
                }
            ],
            "stateMutability": "view",
            "type": "function"
        }
    ],
    "bytecode": "0x60806040523480156200001157600080fd5b5060408051808201909152601c81527f68747470733a2f2f6e66742d746f6b656e2e656e636f64652e636f6d000000006020820152620000518162000063565b506200005d3362000075565b62000238565b60026200007182826200016c565b5050565b600380546001600160a01b038381166001600160a01b0319831681179093556040519116919082907f8be0079c531659141344cd1fd0a4f28419497f9722a3daafe3b4186f6b6457e090600090a35050565b634e487b7160e01b600052604160045260246000fd5b600181811c90821680620000f257607f821691505b6020821081036200011357634e487b7160e01b600052602260045260246000fd5b50919050565b601f8211156200016757600081815260208120601f850160051c81016020861015620001425750805b601f850160051c820191505b8181101562000163578281556001016200014e565b5050505b505050565b81516001600160401b03811115620001885762000188620000c7565b620001a081620001998454620000dd565b8462000119565b602080601f831160018114620001d85760008415620001bf5750858301515b600019600386901b1c1916600185901b17855562000163565b600085815260208120601f198616915b828110156200020957888601518255948401946001909101908401620001e8565b5085821015620002285787850151600019600388901b60f8161c191681555b5050505050600190811b01905550565b611cfa80620002486000396000f3fe608060405234801561001057600080fd5b50600436106100f45760003560e01c8063715018a611610097578063bd85b03911610066578063bd85b03914610215578063e985e9c514610235578063f242432a14610271578063f2fde38b1461028457600080fd5b8063715018a6146101cc578063731133e9146101d45780638da5cb5b146101e7578063a22cb4651461020257600080fd5b80631f7fdffa116100d35780631f7fdffa146101625780632eb2c2d6146101775780634e1273f41461018a5780634f558e79146101aa57600080fd5b8062fdd58e146100f957806301ffc9a71461011f5780630e89341c14610142575b600080fd5b61010c6101073660046114de565b610297565b6040519081526020015b60405180910390f35b61013261012d36600461151e565b610343565b6040519015158152602001610116565b610155610150366004611542565b610393565b60405161011691906115a1565b610175610170366004611700565b610427565b005b610175610185366004611799565b610441565b61019d610198366004611843565b6104d4565b6040516101169190611949565b6101326101b8366004611542565b600090815260046020526040902054151590565b610175610612565b6101756101e236600461195c565b610626565b6003546040516001600160a01b039091168152602001610116565b6101756102103660046119b1565b61063a565b61010c610223366004611542565b60009081526004602052604090205490565b6101326102433660046119ed565b6001600160a01b03918216600090815260016020908152604080832093909416825291909152205460ff1690565b61017561027f366004611a20565b610649565b610175610292366004611a85565b6106d5565b60006001600160a01b03831661031a5760405162461bcd60e51b815260206004820152602a60248201527f455243313135353a2061646472657373207a65726f206973206e6f742061207660448201527f616c6964206f776e65720000000000000000000000000000000000000000000060648201526084015b60405180910390fd5b506000818152602081815260408083206001600160a01b03861684529091529020545b92915050565b60006001600160e01b03198216636cdb3d1360e11b148061037457506001600160e01b031982166303a24d0760e21b145b8061033d57506301ffc9a760e01b6001600160e01b031983161461033d565b6060600280546103a290611aa0565b80601f01602080910402602001604051908101604052809291908181526020018280546103ce90611aa0565b801561041b5780601f106103f05761010080835404028352916020019161041b565b820191906000526020600020905b8154815290600101906020018083116103fe57829003601f168201915b50505050509050919050565b61042f610765565b61043b848484846107bf565b50505050565b6001600160a01b03851633148061045d575061045d8533610243565b6104c05760405162461bcd60e51b815260206004820152602e60248201527f455243313135353a2063616c6c6572206973206e6f7420746f6b656e206f776e60448201526d195c881bdc88185c1c1c9bdd995960921b6064820152608401610311565b6104cd8585858585610994565b5050505050565b6060815183511461054d5760405162461bcd60e51b815260206004820152602960248201527f455243313135353a206163636f756e747320616e6420696473206c656e67746860448201527f206d69736d6174636800000000000000000000000000000000000000000000006064820152608401610311565b6000835167ffffffffffffffff811115610569576105696115b4565b604051908082528060200260200182016040528015610592578160200160208202803683370190505b50905060005b845181101561060a576105dd8582815181106105b6576105b6611ada565b60200260200101518583815181106105d0576105d0611ada565b6020026020010151610297565b8282815181106105ef576105ef611ada565b602090810291909101015261060381611b06565b9050610598565b509392505050565b61061a610765565b6106246000610c00565b565b61062e610765565b61043b84848484610c6a565b610645338383610d8d565b5050565b6001600160a01b03851633148061066557506106658533610243565b6106c85760405162461bcd60e51b815260206004820152602e60248201527f455243313135353a2063616c6c6572206973206e6f7420746f6b656e206f776e60448201526d195c881bdc88185c1c1c9bdd995960921b6064820152608401610311565b6104cd8585858585610e81565b6106dd610765565b6001600160a01b0381166107595760405162461bcd60e51b815260206004820152602660248201527f4f776e61626c653a206e6577206f776e657220697320746865207a65726f206160448201527f64647265737300000000000000000000000000000000000000000000000000006064820152608401610311565b61076281610c00565b50565b6003546001600160a01b031633146106245760405162461bcd60e51b815260206004820181905260248201527f4f776e61626c653a2063616c6c6572206973206e6f7420746865206f776e65726044820152606401610311565b6001600160a01b03841661081f5760405162461bcd60e51b815260206004820152602160248201527f455243313135353a206d696e7420746f20746865207a65726f206164647265736044820152607360f81b6064820152608401610311565b81518351146108815760405162461bcd60e51b815260206004820152602860248201527f455243313135353a2069647320616e6420616d6f756e7473206c656e677468206044820152670dad2e6dac2e8c6d60c31b6064820152608401610311565b336108918160008787878761103a565b60005b845181101561092c578381815181106108af576108af611ada565b60200260200101516000808784815181106108cc576108cc611ada565b602002602001015181526020019081526020016000206000886001600160a01b03166001600160a01b0316815260200190815260200160002060008282546109149190611b1f565b9091555081905061092481611b06565b915050610894565b50846001600160a01b031660006001600160a01b0316826001600160a01b03167f4a39dc06d4c0dbc64b70af90fd698a233a518aa5d07e595d983b8c0526c8f7fb878760405161097d929190611b32565b60405180910390a46104cd81600087878787611048565b81518351146109f65760405162461bcd60e51b815260206004820152602860248201527f455243313135353a2069647320616e6420616d6f756e7473206c656e677468206044820152670dad2e6dac2e8c6d60c31b6064820152608401610311565b6001600160a01b038416610a5a5760405162461bcd60e51b815260206004820152602560248201527f455243313135353a207472616e7366657220746f20746865207a65726f206164604482015264647265737360d81b6064820152608401610311565b33610a6981878787878761103a565b60005b8451811015610b92576000858281518110610a8957610a89611ada565b602002602001015190506000858381518110610aa757610aa7611ada565b602090810291909101810151600084815280835260408082206001600160a01b038e168352909352919091205490915081811015610b3a5760405162461bcd60e51b815260206004820152602a60248201527f455243313135353a20696e73756666696369656e742062616c616e636520666f60448201526939103a3930b739b332b960b11b6064820152608401610311565b6000838152602081815260408083206001600160a01b038e8116855292528083208585039055908b16825281208054849290610b77908490611b1f565b9250508190555050505080610b8b90611b06565b9050610a6c565b50846001600160a01b0316866001600160a01b0316826001600160a01b03167f4a39dc06d4c0dbc64b70af90fd698a233a518aa5d07e595d983b8c0526c8f7fb8787604051610be2929190611b32565b60405180910390a4610bf8818787878787611048565b505050505050565b600380546001600160a01b038381167fffffffffffffffffffffffff0000000000000000000000000000000000000000831681179093556040519116919082907f8be0079c531659141344cd1fd0a4f28419497f9722a3daafe3b4186f6b6457e090600090a35050565b6001600160a01b038416610cca5760405162461bcd60e51b815260206004820152602160248201527f455243313135353a206d696e7420746f20746865207a65726f206164647265736044820152607360f81b6064820152608401610311565b336000610cd6856111ed565b90506000610ce3856111ed565b9050610cf48360008985858961103a565b6000868152602081815260408083206001600160a01b038b16845290915281208054879290610d24908490611b1f565b909155505060408051878152602081018790526001600160a01b03808a1692600092918716917fc3d58168c5ae7397731d063d5bbf3d657854427343f4c083240f7aacaa2d0f62910160405180910390a4610d8483600089898989611238565b50505050505050565b816001600160a01b0316836001600160a01b031603610e145760405162461bcd60e51b815260206004820152602960248201527f455243313135353a2073657474696e6720617070726f76616c2073746174757360448201527f20666f722073656c6600000000000000000000000000000000000000000000006064820152608401610311565b6001600160a01b03838116600081815260016020908152604080832094871680845294825291829020805460ff191686151590811790915591519182527f17307eab39ab6107e8899845ad3d59bd9653f200f220920489ca2b5937696c31910160405180910390a3505050565b6001600160a01b038416610ee55760405162461bcd60e51b815260206004820152602560248201527f455243313135353a207472616e7366657220746f20746865207a65726f206164604482015264647265737360d81b6064820152608401610311565b336000610ef1856111ed565b90506000610efe856111ed565b9050610f0e83898985858961103a565b6000868152602081815260408083206001600160a01b038c16845290915290205485811015610f925760405162461bcd60e51b815260206004820152602a60248201527f455243313135353a20696e73756666696369656e742062616c616e636520666f60448201526939103a3930b739b332b960b11b6064820152608401610311565b6000878152602081815260408083206001600160a01b038d8116855292528083208985039055908a16825281208054889290610fcf908490611b1f565b909155505060408051888152602081018890526001600160a01b03808b16928c821692918816917fc3d58168c5ae7397731d063d5bbf3d657854427343f4c083240f7aacaa2d0f62910160405180910390a461102f848a8a8a8a8a611238565b505050505050505050565b610bf8868686868686611334565b6001600160a01b0384163b15610bf85760405163bc197c8160e01b81526001600160a01b0385169063bc197c819061108c9089908990889088908890600401611b60565b6020604051808303816000875af19250505080156110c7575060408051601f3d908101601f191682019092526110c491810190611bbe565b60015b61117c576110d3611bdb565b806308c379a00361110c57506110e7611bf7565b806110f2575061110e565b8060405162461bcd60e51b815260040161031191906115a1565b505b60405162461bcd60e51b815260206004820152603460248201527f455243313135353a207472616e7366657220746f206e6f6e2d4552433131353560448201527f526563656976657220696d706c656d656e7465720000000000000000000000006064820152608401610311565b6001600160e01b0319811663bc197c8160e01b14610d845760405162461bcd60e51b815260206004820152602860248201527f455243313135353a204552433131353552656365697665722072656a656374656044820152676420746f6b656e7360c01b6064820152608401610311565b6040805160018082528183019092526060916000919060208083019080368337019050509050828160008151811061122757611227611ada565b602090810291909101015292915050565b6001600160a01b0384163b15610bf85760405163f23a6e6160e01b81526001600160a01b0385169063f23a6e619061127c9089908990889088908890600401611c81565b6020604051808303816000875af19250505080156112b7575060408051601f3d908101601f191682019092526112b491810190611bbe565b60015b6112c3576110d3611bdb565b6001600160e01b0319811663f23a6e6160e01b14610d845760405162461bcd60e51b815260206004820152602860248201527f455243313135353a204552433131353552656365697665722072656a656374656044820152676420746f6b656e7360c01b6064820152608401610311565b6001600160a01b0385166113bb5760005b83518110156113b95782818151811061136057611360611ada565b60200260200101516004600086848151811061137e5761137e611ada565b6020026020010151815260200190815260200160002060008282546113a39190611b1f565b909155506113b2905081611b06565b9050611345565b505b6001600160a01b038416610bf85760005b8351811015610d845760008482815181106113e9576113e9611ada565b60200260200101519050600084838151811061140757611407611ada565b602002602001015190506000600460008481526020019081526020016000205490508181101561149f5760405162461bcd60e51b815260206004820152602860248201527f455243313135353a206275726e20616d6f756e74206578636565647320746f7460448201527f616c537570706c790000000000000000000000000000000000000000000000006064820152608401610311565b600092835260046020526040909220910390556114bb81611b06565b90506113cc565b80356001600160a01b03811681146114d957600080fd5b919050565b600080604083850312156114f157600080fd5b6114fa836114c2565b946020939093013593505050565b6001600160e01b03198116811461076257600080fd5b60006020828403121561153057600080fd5b813561153b81611508565b9392505050565b60006020828403121561155457600080fd5b5035919050565b6000815180845260005b8181101561158157602081850181015186830182015201611565565b506000602082860101526020601f19601f83011685010191505092915050565b60208152600061153b602083018461155b565b634e487b7160e01b600052604160045260246000fd5b601f8201601f1916810167ffffffffffffffff811182821017156115f0576115f06115b4565b6040525050565b600067ffffffffffffffff821115611611576116116115b4565b5060051b60200190565b600082601f83011261162c57600080fd5b81356020611639826115f7565b60405161164682826115ca565b83815260059390931b850182019282810191508684111561166657600080fd5b8286015b84811015611681578035835291830191830161166a565b509695505050505050565b600082601f83011261169d57600080fd5b813567ffffffffffffffff8111156116b7576116b76115b4565b6040516116ce601f8301601f1916602001826115ca565b8181528460208386010111156116e357600080fd5b816020850160208301376000918101602001919091529392505050565b6000806000806080858703121561171657600080fd5b61171f856114c2565b9350602085013567ffffffffffffffff8082111561173c57600080fd5b6117488883890161161b565b9450604087013591508082111561175e57600080fd5b61176a8883890161161b565b9350606087013591508082111561178057600080fd5b5061178d8782880161168c565b91505092959194509250565b600080600080600060a086880312156117b157600080fd5b6117ba866114c2565b94506117c8602087016114c2565b9350604086013567ffffffffffffffff808211156117e557600080fd5b6117f189838a0161161b565b9450606088013591508082111561180757600080fd5b61181389838a0161161b565b9350608088013591508082111561182957600080fd5b506118368882890161168c565b9150509295509295909350565b6000806040838503121561185657600080fd5b823567ffffffffffffffff8082111561186e57600080fd5b818501915085601f83011261188257600080fd5b8135602061188f826115f7565b60405161189c82826115ca565b83815260059390931b85018201928281019150898411156118bc57600080fd5b948201945b838610156118e1576118d2866114c2565b825294820194908201906118c1565b965050860135925050808211156118f757600080fd5b506119048582860161161b565b9150509250929050565b600081518084526020808501945080840160005b8381101561193e57815187529582019590820190600101611922565b509495945050505050565b60208152600061153b602083018461190e565b6000806000806080858703121561197257600080fd5b61197b856114c2565b93506020850135925060408501359150606085013567ffffffffffffffff8111156119a557600080fd5b61178d8782880161168c565b600080604083850312156119c457600080fd5b6119cd836114c2565b9150602083013580151581146119e257600080fd5b809150509250929050565b60008060408385031215611a0057600080fd5b611a09836114c2565b9150611a17602084016114c2565b90509250929050565b600080600080600060a08688031215611a3857600080fd5b611a41866114c2565b9450611a4f602087016114c2565b93506040860135925060608601359150608086013567ffffffffffffffff811115611a7957600080fd5b6118368882890161168c565b600060208284031215611a9757600080fd5b61153b826114c2565b600181811c90821680611ab457607f821691505b602082108103611ad457634e487b7160e01b600052602260045260246000fd5b50919050565b634e487b7160e01b600052603260045260246000fd5b634e487b7160e01b600052601160045260246000fd5b600060018201611b1857611b18611af0565b5060010190565b8082018082111561033d5761033d611af0565b604081526000611b45604083018561190e565b8281036020840152611b57818561190e565b95945050505050565b60006001600160a01b03808816835280871660208401525060a06040830152611b8c60a083018661190e565b8281036060840152611b9e818661190e565b90508281036080840152611bb2818561155b565b98975050505050505050565b600060208284031215611bd057600080fd5b815161153b81611508565b600060033d1115611bf45760046000803e5060005160e01c5b90565b600060443d1015611c055790565b6040516003193d81016004833e81513d67ffffffffffffffff8160248401118184111715611c3557505050505090565b8285019150815181811115611c4d5750505050505090565b843d8701016020828501011115611c675750505050505090565b611c76602082860101876115ca565b509095945050505050565b60006001600160a01b03808816835280871660208401525084604083015283606083015260a06080830152611cb960a083018461155b565b97965050505050505056fea26469706673582212206f661f9eac8bfebdcd49d166c47212631e10d591b5feaa97e754fbecec5fc34864736f6c63430008120033",
    "linkReferences": {},
    "deployedLinkReferences": {}
}