{
  "_format": "hh-sol-artifact-1",
  "contractName": "TokenizedBallot",
  "sourceName": "contracts/TokenizedBallot.sol",
  "abi": [
    {
      "inputs": [
        {
          "internalType": "bytes32[]",
          "name": "proposalNames",
          "type": "bytes32[]"
        },
        {
          "internalType": "address",
          "name": "_votesContract",
          "type": "address"
        },
        {
          "internalType": "uint256",
          "name": "_targetBlockNumber",
          "type": "uint256"
        }
      ],
      "stateMutability": "nonpayable",
      "type": "constructor"
    },
    {
      "inputs": [
        {
          "internalType": "uint256",
          "name": "",
          "type": "uint256"
        }
      ],
      "name": "proposals",
      "outputs": [
        {
          "internalType": "bytes32",
          "name": "name",
          "type": "bytes32"
        },
        {
          "internalType": "uint256",
          "name": "voteCount",
          "type": "uint256"
        }
      ],
      "stateMutability": "view",
      "type": "function"
    },
    {
      "inputs": [],
      "name": "targetBlockNumber",
      "outputs": [
        {
          "internalType": "uint256",
          "name": "",
          "type": "uint256"
        }
      ],
      "stateMutability": "view",
      "type": "function"
    },
    {
      "inputs": [
        {
          "internalType": "uint256",
          "name": "proposal",
          "type": "uint256"
        },
        {
          "internalType": "uint256",
          "name": "amount",
          "type": "uint256"
        }
      ],
      "name": "vote",
      "outputs": [],
      "stateMutability": "nonpayable",
      "type": "function"
    },
    {
      "inputs": [],
      "name": "votesContract",
      "outputs": [
        {
          "internalType": "contract IVotes",
          "name": "",
          "type": "address"
        }
      ],
      "stateMutability": "view",
      "type": "function"
    },
    {
      "inputs": [
        {
          "internalType": "address",
          "name": "",
          "type": "address"
        }
      ],
      "name": "votingPowerSpent",
      "outputs": [
        {
          "internalType": "uint256",
          "name": "",
          "type": "uint256"
        }
      ],
      "stateMutability": "view",
      "type": "function"
    },
    {
      "inputs": [],
      "name": "winnerName",
      "outputs": [
        {
          "internalType": "bytes32",
          "name": "winnerName_",
          "type": "bytes32"
        }
      ],
      "stateMutability": "view",
      "type": "function"
    },
    {
      "inputs": [],
      "name": "winningProposal",
      "outputs": [
        {
          "internalType": "uint256",
          "name": "winningProposal_",
          "type": "uint256"
        }
      ],
      "stateMutability": "view",
      "type": "function"
    }
  ],
  "bytecode": "0x608060405234801561001057600080fd5b506040516106a03803806106a083398101604081905261002f916100fe565b600080546001600160a01b0319166001600160a01b03841617815560028290555b83518110156100c35760016040518060400160405280868481518110610078576100786101d6565b602090810291909101810151825260009181018290528354600181810186559483529181902083516002909302019182559190910151910155806100bb816101ec565b915050610050565b50505050610213565b634e487b7160e01b600052604160045260246000fd5b80516001600160a01b03811681146100f957600080fd5b919050565b60008060006060848603121561011357600080fd5b83516001600160401b038082111561012a57600080fd5b818601915086601f83011261013e57600080fd5b8151602082821115610152576101526100cc565b8160051b604051601f19603f83011681018181108682111715610177576101776100cc565b60405292835281830193508481018201928a84111561019557600080fd5b948201945b838610156101b35785518552948201949382019361019a565b97506101c290508882016100e2565b955050505050604084015190509250925092565b634e487b7160e01b600052603260045260246000fd5b60006001820161020c57634e487b7160e01b600052601160045260246000fd5b5060010190565b61047e806102226000396000f3fe608060405234801561001057600080fd5b506004361061007d5760003560e01c8063609ff1bd1161005b578063609ff1bd146100f1578063a7200351146100f9578063b384abef14610119578063e2ba53f01461012e57600080fd5b8063013cf08b14610082578063202ebfef146100af5780632a8cd29e146100da575b600080fd5b610095610090366004610366565b610136565b604080519283526020830191909152015b60405180910390f35b6000546100c2906001600160a01b031681565b6040516001600160a01b0390911681526020016100a6565b6100e360025481565b6040519081526020016100a6565b6100e3610164565b6100e361010736600461037f565b60036020526000908152604090205481565b61012c6101273660046103af565b6101e1565b005b6100e3610333565b6001818154811061014657600080fd5b60009182526020909120600290910201805460019091015490915082565b600080805b6001548110156101dc578160018281548110610187576101876103d1565b90600052602060002090600202016001015411156101ca57600181815481106101b2576101b26103d1565b90600052602060002090600202016001015491508092505b806101d4816103fd565b915050610169565b505090565b60008054600254604051630748d63560e31b815233600482015260248101919091526001600160a01b0390911690633a46b1a890604401602060405180830381865afa158015610235573d6000803e3d6000fd5b505050506040513d601f19601f820116820180604052508101906102599190610416565b336000908152600360205260408120549192509061027890849061042f565b9050818111156102ce5760405162461bcd60e51b815260206004820152601860248201527f4e6f7420656e6f75676820766f74696e6720706f7765722e0000000000000000604482015260640160405180910390fd5b33600090815260036020526040812080548592906102ed90849061042f565b925050819055508260018581548110610308576103086103d1565b90600052602060002090600202016001016000828254610328919061042f565b909155505050505050565b6000600161033f610164565b8154811061034f5761034f6103d1565b906000526020600020906002020160000154905090565b60006020828403121561037857600080fd5b5035919050565b60006020828403121561039157600080fd5b81356001600160a01b03811681146103a857600080fd5b9392505050565b600080604083850312156103c257600080fd5b50508035926020909101359150565b634e487b7160e01b600052603260045260246000fd5b634e487b7160e01b600052601160045260246000fd5b60006001820161040f5761040f6103e7565b5060010190565b60006020828403121561042857600080fd5b5051919050565b80820180821115610442576104426103e7565b9291505056fea2646970667358221220b631e33eb0a958e477b0289f829491b557cd2241551927c5b8b01f5f5da5dc6f64736f6c63430008120033",
  "linkReferences": {},
  "deployedLinkReferences": {}
}