{
  "_format": "hh-sol-artifact-1",
  "contractName": "MyERC20Votes",
  "sourceName": "contracts/MyERC20Votes.sol",
  "abi": [
    {
      "inputs": [],
      "stateMutability": "nonpayable",
      "type": "constructor"
    },
    {
      "anonymous": false,
      "inputs": [
        {
          "indexed": true,
          "internalType": "address",
          "name": "owner",
          "type": "address"
        },
        {
          "indexed": true,
          "internalType": "address",
          "name": "spender",
          "type": "address"
        },
        {
          "indexed": false,
          "internalType": "uint256",
          "name": "value",
          "type": "uint256"
        }
      ],
      "name": "Approval",
      "type": "event"
    },
    {
      "anonymous": false,
      "inputs": [
        {
          "indexed": true,
          "internalType": "address",
          "name": "delegator",
          "type": "address"
        },
        {
          "indexed": true,
          "internalType": "address",
          "name": "fromDelegate",
          "type": "address"
        },
        {
          "indexed": true,
          "internalType": "address",
          "name": "toDelegate",
          "type": "address"
        }
      ],
      "name": "DelegateChanged",
      "type": "event"
    },
    {
      "anonymous": false,
      "inputs": [
        {
          "indexed": true,
          "internalType": "address",
          "name": "delegate",
          "type": "address"
        },
        {
          "indexed": false,
          "internalType": "uint256",
          "name": "previousBalance",
          "type": "uint256"
        },
        {
          "indexed": false,
          "internalType": "uint256",
          "name": "newBalance",
          "type": "uint256"
        }
      ],
      "name": "DelegateVotesChanged",
      "type": "event"
    },
    {
      "anonymous": false,
      "inputs": [
        {
          "indexed": true,
          "internalType": "bytes32",
          "name": "role",
          "type": "bytes32"
        },
        {
          "indexed": true,
          "internalType": "bytes32",
          "name": "previousAdminRole",
          "type": "bytes32"
        },
        {
          "indexed": true,
          "internalType": "bytes32",
          "name": "newAdminRole",
          "type": "bytes32"
        }
      ],
      "name": "RoleAdminChanged",
      "type": "event"
    },
    {
      "anonymous": false,
      "inputs": [
        {
          "indexed": true,
          "internalType": "bytes32",
          "name": "role",
          "type": "bytes32"
        },
        {
          "indexed": true,
          "internalType": "address",
          "name": "account",
          "type": "address"
        },
        {
          "indexed": true,
          "internalType": "address",
          "name": "sender",
          "type": "address"
        }
      ],
      "name": "RoleGranted",
      "type": "event"
    },
    {
      "anonymous": false,
      "inputs": [
        {
          "indexed": true,
          "internalType": "bytes32",
          "name": "role",
          "type": "bytes32"
        },
        {
          "indexed": true,
          "internalType": "address",
          "name": "account",
          "type": "address"
        },
        {
          "indexed": true,
          "internalType": "address",
          "name": "sender",
          "type": "address"
        }
      ],
      "name": "RoleRevoked",
      "type": "event"
    },
    {
      "anonymous": false,
      "inputs": [
        {
          "indexed": true,
          "internalType": "address",
          "name": "from",
          "type": "address"
        },
        {
          "indexed": true,
          "internalType": "address",
          "name": "to",
          "type": "address"
        },
        {
          "indexed": false,
          "internalType": "uint256",
          "name": "value",
          "type": "uint256"
        }
      ],
      "name": "Transfer",
      "type": "event"
    },
    {
      "inputs": [],
      "name": "DEFAULT_ADMIN_ROLE",
      "outputs": [
        {
          "internalType": "bytes32",
          "name": "",
          "type": "bytes32"
        }
      ],
      "stateMutability": "view",
      "type": "function"
    },
    {
      "inputs": [],
      "name": "DOMAIN_SEPARATOR",
      "outputs": [
        {
          "internalType": "bytes32",
          "name": "",
          "type": "bytes32"
        }
      ],
      "stateMutability": "view",
      "type": "function"
    },
    {
      "inputs": [],
      "name": "MINTER_ROLE",
      "outputs": [
        {
          "internalType": "bytes32",
          "name": "",
          "type": "bytes32"
        }
      ],
      "stateMutability": "view",
      "type": "function"
    },
    {
      "inputs": [
        {
          "internalType": "address",
          "name": "owner",
          "type": "address"
        },
        {
          "internalType": "address",
          "name": "spender",
          "type": "address"
        }
      ],
      "name": "allowance",
      "outputs": [
        {
          "internalType": "uint256",
          "name": "",
          "type": "uint256"
        }
      ],
      "stateMutability": "view",
      "type": "function"
    },
    {
      "inputs": [
        {
          "internalType": "address",
          "name": "spender",
          "type": "address"
        },
        {
          "internalType": "uint256",
          "name": "amount",
          "type": "uint256"
        }
      ],
      "name": "approve",
      "outputs": [
        {
          "internalType": "bool",
          "name": "",
          "type": "bool"
        }
      ],
      "stateMutability": "nonpayable",
      "type": "function"
    },
    {
      "inputs": [
        {
          "internalType": "address",
          "name": "account",
          "type": "address"
        }
      ],
      "name": "balanceOf",
      "outputs": [
        {
          "internalType": "uint256",
          "name": "",
          "type": "uint256"
        }
      ],
      "stateMutability": "view",
      "type": "function"
    },
    {
      "inputs": [
        {
          "internalType": "address",
          "name": "account",
          "type": "address"
        },
        {
          "internalType": "uint32",
          "name": "pos",
          "type": "uint32"
        }
      ],
      "name": "checkpoints",
      "outputs": [
        {
          "components": [
            {
              "internalType": "uint32",
              "name": "fromBlock",
              "type": "uint32"
            },
            {
              "internalType": "uint224",
              "name": "votes",
              "type": "uint224"
            }
          ],
          "internalType": "struct ERC20Votes.Checkpoint",
          "name": "",
          "type": "tuple"
        }
      ],
      "stateMutability": "view",
      "type": "function"
    },
    {
      "inputs": [],
      "name": "decimals",
      "outputs": [
        {
          "internalType": "uint8",
          "name": "",
          "type": "uint8"
        }
      ],
      "stateMutability": "view",
      "type": "function"
    },
    {
      "inputs": [
        {
          "internalType": "address",
          "name": "spender",
          "type": "address"
        },
        {
          "internalType": "uint256",
          "name": "subtractedValue",
          "type": "uint256"
        }
      ],
      "name": "decreaseAllowance",
      "outputs": [
        {
          "internalType": "bool",
          "name": "",
          "type": "bool"
        }
      ],
      "stateMutability": "nonpayable",
      "type": "function"
    },
    {
      "inputs": [
        {
          "internalType": "address",
          "name": "delegatee",
          "type": "address"
        }
      ],
      "name": "delegate",
      "outputs": [],
      "stateMutability": "nonpayable",
      "type": "function"
    },
    {
      "inputs": [
        {
          "internalType": "address",
          "name": "delegatee",
          "type": "address"
        },
        {
          "internalType": "uint256",
          "name": "nonce",
          "type": "uint256"
        },
        {
          "internalType": "uint256",
          "name": "expiry",
          "type": "uint256"
        },
        {
          "internalType": "uint8",
          "name": "v",
          "type": "uint8"
        },
        {
          "internalType": "bytes32",
          "name": "r",
          "type": "bytes32"
        },
        {
          "internalType": "bytes32",
          "name": "s",
          "type": "bytes32"
        }
      ],
      "name": "delegateBySig",
      "outputs": [],
      "stateMutability": "nonpayable",
      "type": "function"
    },
    {
      "inputs": [
        {
          "internalType": "address",
          "name": "account",
          "type": "address"
        }
      ],
      "name": "delegates",
      "outputs": [
        {
          "internalType": "address",
          "name": "",
          "type": "address"
        }
      ],
      "stateMutability": "view",
      "type": "function"
    },
    {
      "inputs": [
        {
          "internalType": "uint256",
          "name": "blockNumber",
          "type": "uint256"
        }
      ],
      "name": "getPastTotalSupply",
      "outputs": [
        {
          "internalType": "uint256",
          "name": "",
          "type": "uint256"
        }
      ],
      "stateMutability": "view",
      "type": "function"
    },
    {
      "inputs": [
        {
          "internalType": "address",
          "name": "account",
          "type": "address"
        },
        {
          "internalType": "uint256",
          "name": "blockNumber",
          "type": "uint256"
        }
      ],
      "name": "getPastVotes",
      "outputs": [
        {
          "internalType": "uint256",
          "name": "",
          "type": "uint256"
        }
      ],
      "stateMutability": "view",
      "type": "function"
    },
    {
      "inputs": [
        {
          "internalType": "bytes32",
          "name": "role",
          "type": "bytes32"
        }
      ],
      "name": "getRoleAdmin",
      "outputs": [
        {
          "internalType": "bytes32",
          "name": "",
          "type": "bytes32"
        }
      ],
      "stateMutability": "view",
      "type": "function"
    },
    {
      "inputs": [
        {
          "internalType": "address",
          "name": "account",
          "type": "address"
        }
      ],
      "name": "getVotes",
      "outputs": [
        {
          "internalType": "uint256",
          "name": "",
          "type": "uint256"
        }
      ],
      "stateMutability": "view",
      "type": "function"
    },
    {
      "inputs": [
        {
          "internalType": "bytes32",
          "name": "role",
          "type": "bytes32"
        },
        {
          "internalType": "address",
          "name": "account",
          "type": "address"
        }
      ],
      "name": "grantRole",
      "outputs": [],
      "stateMutability": "nonpayable",
      "type": "function"
    },
    {
      "inputs": [
        {
          "internalType": "bytes32",
          "name": "role",
          "type": "bytes32"
        },
        {
          "internalType": "address",
          "name": "account",
          "type": "address"
        }
      ],
      "name": "hasRole",
      "outputs": [
        {
          "internalType": "bool",
          "name": "",
          "type": "bool"
        }
      ],
      "stateMutability": "view",
      "type": "function"
    },
    {
      "inputs": [
        {
          "internalType": "address",
          "name": "spender",
          "type": "address"
        },
        {
          "internalType": "uint256",
          "name": "addedValue",
          "type": "uint256"
        }
      ],
      "name": "increaseAllowance",
      "outputs": [
        {
          "internalType": "bool",
          "name": "",
          "type": "bool"
        }
      ],
      "stateMutability": "nonpayable",
      "type": "function"
    },
    {
      "inputs": [
        {
          "internalType": "address",
          "name": "to",
          "type": "address"
        },
        {
          "internalType": "uint256",
          "name": "amount",
          "type": "uint256"
        }
      ],
      "name": "mint",
      "outputs": [],
      "stateMutability": "nonpayable",
      "type": "function"
    },
    {
      "inputs": [],
      "name": "name",
      "outputs": [
        {
          "internalType": "string",
          "name": "",
          "type": "string"
        }
      ],
      "stateMutability": "view",
      "type": "function"
    },
    {
      "inputs": [
        {
          "internalType": "address",
          "name": "owner",
          "type": "address"
        }
      ],
      "name": "nonces",
      "outputs": [
        {
          "internalType": "uint256",
          "name": "",
          "type": "uint256"
        }
      ],
      "stateMutability": "view",
      "type": "function"
    },
    {
      "inputs": [
        {
          "internalType": "address",
          "name": "account",
          "type": "address"
        }
      ],
      "name": "numCheckpoints",
      "outputs": [
        {
          "internalType": "uint32",
          "name": "",
          "type": "uint32"
        }
      ],
      "stateMutability": "view",
      "type": "function"
    },
    {
      "inputs": [
        {
          "internalType": "address",
          "name": "owner",
          "type": "address"
        },
        {
          "internalType": "address",
          "name": "spender",
          "type": "address"
        },
        {
          "internalType": "uint256",
          "name": "value",
          "type": "uint256"
        },
        {
          "internalType": "uint256",
          "name": "deadline",
          "type": "uint256"
        },
        {
          "internalType": "uint8",
          "name": "v",
          "type": "uint8"
        },
        {
          "internalType": "bytes32",
          "name": "r",
          "type": "bytes32"
        },
        {
          "internalType": "bytes32",
          "name": "s",
          "type": "bytes32"
        }
      ],
      "name": "permit",
      "outputs": [],
      "stateMutability": "nonpayable",
      "type": "function"
    },
    {
      "inputs": [
        {
          "internalType": "bytes32",
          "name": "role",
          "type": "bytes32"
        },
        {
          "internalType": "address",
          "name": "account",
          "type": "address"
        }
      ],
      "name": "renounceRole",
      "outputs": [],
      "stateMutability": "nonpayable",
      "type": "function"
    },
    {
      "inputs": [
        {
          "internalType": "bytes32",
          "name": "role",
          "type": "bytes32"
        },
        {
          "internalType": "address",
          "name": "account",
          "type": "address"
        }
      ],
      "name": "revokeRole",
      "outputs": [],
      "stateMutability": "nonpayable",
      "type": "function"
    },
    {
      "inputs": [
        {
          "internalType": "bytes4",
          "name": "interfaceId",
          "type": "bytes4"
        }
      ],
      "name": "supportsInterface",
      "outputs": [
        {
          "internalType": "bool",
          "name": "",
          "type": "bool"
        }
      ],
      "stateMutability": "view",
      "type": "function"
    },
    {
      "inputs": [],
      "name": "symbol",
      "outputs": [
        {
          "internalType": "string",
          "name": "",
          "type": "string"
        }
      ],
      "stateMutability": "view",
      "type": "function"
    },
    {
      "inputs": [],
      "name": "totalSupply",
      "outputs": [
        {
          "internalType": "uint256",
          "name": "",
          "type": "uint256"
        }
      ],
      "stateMutability": "view",
      "type": "function"
    },
    {
      "inputs": [
        {
          "internalType": "address",
          "name": "to",
          "type": "address"
        },
        {
          "internalType": "uint256",
          "name": "amount",
          "type": "uint256"
        }
      ],
      "name": "transfer",
      "outputs": [
        {
          "internalType": "bool",
          "name": "",
          "type": "bool"
        }
      ],
      "stateMutability": "nonpayable",
      "type": "function"
    },
    {
      "inputs": [
        {
          "internalType": "address",
          "name": "from",
          "type": "address"
        },
        {
          "internalType": "address",
          "name": "to",
          "type": "address"
        },
        {
          "internalType": "uint256",
          "name": "amount",
          "type": "uint256"
        }
      ],
      "name": "transferFrom",
      "outputs": [
        {
          "internalType": "bool",
          "name": "",
          "type": "bool"
        }
      ],
      "stateMutability": "nonpayable",
      "type": "function"
    }
  ],
  "bytecode": "0x6101406040523480156200001257600080fd5b506040518060400160405280600781526020016626bcaa37b5b2b760c91b81525080604051806040016040528060018152602001603160f81b8152506040518060400160405280600781526020016626bcaa37b5b2b760c91b815250604051806040016040528060038152602001624d544b60e81b81525081600390816200009b9190620002c7565b506004620000aa8282620002c7565b5050825160209384012082519284019290922060e08390526101008190524660a0818152604080517f8b73c3c69bb8fe3d512ecc4cf759cc79239f7b179b0ffacaa9a75d522b39400f818901819052818301979097526060810194909452608080850193909352308483018190528151808603909301835260c09485019091528151919096012090529290925261012052506200014b90506000336200017d565b620001777f9f2df0fed2c77648de5860a4cc508cd0818c85b8b8a1ab4ceeef8d981c8956a6336200017d565b62000393565b60008281526005602090815260408083206001600160a01b038516845290915290205460ff166200021e5760008281526005602090815260408083206001600160a01b03851684529091529020805460ff19166001179055620001dd3390565b6001600160a01b0316816001600160a01b0316837f2f8788117e7eff1d82e926ec794901d17c78024a50270940304540a733656f0d60405160405180910390a45b5050565b634e487b7160e01b600052604160045260246000fd5b600181811c908216806200024d57607f821691505b6020821081036200026e57634e487b7160e01b600052602260045260246000fd5b50919050565b601f821115620002c257600081815260208120601f850160051c810160208610156200029d5750805b601f850160051c820191505b81811015620002be57828155600101620002a9565b5050505b505050565b81516001600160401b03811115620002e357620002e362000222565b620002fb81620002f4845462000238565b8462000274565b602080601f8311600181146200033357600084156200031a5750858301515b600019600386901b1c1916600185901b178555620002be565b600085815260208120601f198616915b82811015620003645788860151825594840194600190910190840162000343565b5085821015620003835787850151600019600388901b60f8161c191681555b5050505050600190811b01905550565b60805160a05160c05160e05161010051610120516124c8620003e360003960006111db0152600061122a015260006112050152600061115e01526000611188015260006111b201526124c86000f3fe608060405234801561001057600080fd5b50600436106101e55760003560e01c80636fcfff451161010f578063a457c2d7116100a2578063d539139311610071578063d539139314610470578063d547741f14610497578063dd62ed3e146104aa578063f1127ed8146104e357600080fd5b8063a457c2d714610424578063a9059cbb14610437578063c3cda5201461044a578063d505accf1461045d57600080fd5b806391d14854116100de57806391d14854146103c857806395d89b41146104015780639ab24eb014610409578063a217fddf1461041c57600080fd5b80636fcfff451461035157806370a08231146103795780637ecebe00146103a25780638e539e8c146103b557600080fd5b8063313ce567116101875780633a46b1a8116101565780633a46b1a8146102d457806340c10f19146102e7578063587cde1e146102fa5780635c19a95c1461033e57600080fd5b8063313ce567146102975780633644e515146102a657806336568abe146102ae57806339509351146102c157600080fd5b806318160ddd116101c357806318160ddd1461023a57806323b872dd1461024c578063248a9ca31461025f5780632f2ff15d1461028257600080fd5b806301ffc9a7146101ea57806306fdde0314610212578063095ea7b314610227575b600080fd5b6101fd6101f8366004612059565b610520565b60405190151581526020015b60405180910390f35b61021a610557565b60405161020991906120a7565b6101fd6102353660046120f6565b6105e9565b6002545b604051908152602001610209565b6101fd61025a366004612120565b610601565b61023e61026d36600461215c565b60009081526005602052604090206001015490565b610295610290366004612175565b610625565b005b60405160128152602001610209565b61023e61064f565b6102956102bc366004612175565b61065e565b6101fd6102cf3660046120f6565b6106ef565b61023e6102e23660046120f6565b61072e565b6102956102f53660046120f6565b6107a8565b6103266103083660046121a1565b6001600160a01b039081166000908152600860205260409020541690565b6040516001600160a01b039091168152602001610209565b61029561034c3660046121a1565b6107dc565b61036461035f3660046121a1565b6107e9565b60405163ffffffff9091168152602001610209565b61023e6103873660046121a1565b6001600160a01b031660009081526020819052604090205490565b61023e6103b03660046121a1565b61080b565b61023e6103c336600461215c565b610829565b6101fd6103d6366004612175565b60009182526005602090815260408084206001600160a01b0393909316845291905290205460ff1690565b61021a610885565b61023e6104173660046121a1565b610894565b61023e600081565b6101fd6104323660046120f6565b61091b565b6101fd6104453660046120f6565b6109c5565b6102956104583660046121cd565b6109d3565b61029561046b366004612225565b610b09565b61023e7f9f2df0fed2c77648de5860a4cc508cd0818c85b8b8a1ab4ceeef8d981c8956a681565b6102956104a5366004612175565b610c6d565b61023e6104b836600461228f565b6001600160a01b03918216600090815260016020908152604080832093909416825291909152205490565b6104f66104f13660046122b9565b610c92565b60408051825163ffffffff1681526020928301516001600160e01b03169281019290925201610209565b60006001600160e01b03198216637965db0b60e01b148061055157506301ffc9a760e01b6001600160e01b03198316145b92915050565b606060038054610566906122f9565b80601f0160208091040260200160405190810160405280929190818152602001828054610592906122f9565b80156105df5780601f106105b4576101008083540402835291602001916105df565b820191906000526020600020905b8154815290600101906020018083116105c257829003601f168201915b5050505050905090565b6000336105f7818585610d16565b5060019392505050565b60003361060f858285610e3a565b61061a858585610ecc565b506001949350505050565b600082815260056020526040902060010154610640816110a5565b61064a83836110af565b505050565b6000610659611151565b905090565b6001600160a01b03811633146106e15760405162461bcd60e51b815260206004820152602f60248201527f416363657373436f6e74726f6c3a2063616e206f6e6c792072656e6f756e636560448201527f20726f6c657320666f722073656c66000000000000000000000000000000000060648201526084015b60405180910390fd5b6106eb8282611278565b5050565b3360008181526001602090815260408083206001600160a01b03871684529091528120549091906105f79082908690610729908790612343565b610d16565b600043821061077f5760405162461bcd60e51b815260206004820152601f60248201527f4552433230566f7465733a20626c6f636b206e6f7420796574206d696e65640060448201526064016106d8565b6001600160a01b03831660009081526009602052604090206107a190836112fb565b9392505050565b7f9f2df0fed2c77648de5860a4cc508cd0818c85b8b8a1ab4ceeef8d981c8956a66107d2816110a5565b61064a83836113f2565b6107e633826113fc565b50565b6001600160a01b0381166000908152600960205260408120546105519061148d565b6001600160a01b038116600090815260066020526040812054610551565b600043821061087a5760405162461bcd60e51b815260206004820152601f60248201527f4552433230566f7465733a20626c6f636b206e6f7420796574206d696e65640060448201526064016106d8565b610551600a836112fb565b606060048054610566906122f9565b6001600160a01b0381166000908152600960205260408120548015610908576001600160a01b03831660009081526009602052604090206108d6600183612356565b815481106108e6576108e6612369565b60009182526020909120015464010000000090046001600160e01b031661090b565b60005b6001600160e01b03169392505050565b3360008181526001602090815260408083206001600160a01b0387168452909152812054909190838110156109b85760405162461bcd60e51b815260206004820152602560248201527f45524332303a2064656372656173656420616c6c6f77616e63652062656c6f7760448201527f207a65726f00000000000000000000000000000000000000000000000000000060648201526084016106d8565b61061a8286868403610d16565b6000336105f7818585610ecc565b83421115610a235760405162461bcd60e51b815260206004820152601d60248201527f4552433230566f7465733a207369676e6174757265206578706972656400000060448201526064016106d8565b604080517fe48329057bfd03d55e49b547132e39cffd9c1820ad7b9d4c5307691425d15adf60208201526001600160a01b038816918101919091526060810186905260808101859052600090610a9d90610a959060a0016040516020818303038152906040528051906020012061150d565b85858561155b565b9050610aa881611583565b8614610af65760405162461bcd60e51b815260206004820152601960248201527f4552433230566f7465733a20696e76616c6964206e6f6e63650000000000000060448201526064016106d8565b610b0081886113fc565b50505050505050565b83421115610b595760405162461bcd60e51b815260206004820152601d60248201527f45524332305065726d69743a206578706972656420646561646c696e6500000060448201526064016106d8565b60007f6e71edae12b1b97f4d1f60370fef10105fa2faae0126114a169c64845d6126c9888888610b888c611583565b6040805160208101969096526001600160a01b0394851690860152929091166060840152608083015260a082015260c0810186905260e0016040516020818303038152906040528051906020012090506000610be38261150d565b90506000610bf38287878761155b565b9050896001600160a01b0316816001600160a01b031614610c565760405162461bcd60e51b815260206004820152601e60248201527f45524332305065726d69743a20696e76616c6964207369676e6174757265000060448201526064016106d8565b610c618a8a8a610d16565b50505050505050505050565b600082815260056020526040902060010154610c88816110a5565b61064a8383611278565b60408051808201909152600080825260208201526001600160a01b0383166000908152600960205260409020805463ffffffff8416908110610cd657610cd6612369565b60009182526020918290206040805180820190915291015463ffffffff8116825264010000000090046001600160e01b0316918101919091529392505050565b6001600160a01b038316610d785760405162461bcd60e51b8152602060048201526024808201527f45524332303a20617070726f76652066726f6d20746865207a65726f206164646044820152637265737360e01b60648201526084016106d8565b6001600160a01b038216610dd95760405162461bcd60e51b815260206004820152602260248201527f45524332303a20617070726f766520746f20746865207a65726f206164647265604482015261737360f01b60648201526084016106d8565b6001600160a01b0383811660008181526001602090815260408083209487168084529482529182902085905590518481527f8c5be1e5ebec7d5bd14f71427d1e84f3dd0314c0f7b2291e5b200ac8c7c3b925910160405180910390a3505050565b6001600160a01b038381166000908152600160209081526040808320938616835292905220546000198114610ec65781811015610eb95760405162461bcd60e51b815260206004820152601d60248201527f45524332303a20696e73756666696369656e7420616c6c6f77616e636500000060448201526064016106d8565b610ec68484848403610d16565b50505050565b6001600160a01b038316610f485760405162461bcd60e51b815260206004820152602560248201527f45524332303a207472616e736665722066726f6d20746865207a65726f20616460448201527f647265737300000000000000000000000000000000000000000000000000000060648201526084016106d8565b6001600160a01b038216610faa5760405162461bcd60e51b815260206004820152602360248201527f45524332303a207472616e7366657220746f20746865207a65726f206164647260448201526265737360e81b60648201526084016106d8565b6001600160a01b038316600090815260208190526040902054818110156110395760405162461bcd60e51b815260206004820152602660248201527f45524332303a207472616e7366657220616d6f756e742065786365656473206260448201527f616c616e6365000000000000000000000000000000000000000000000000000060648201526084016106d8565b6001600160a01b03848116600081815260208181526040808320878703905593871680835291849020805487019055925185815290927fddf252ad1be2c89b69c2b068fc378daa952ba7f163c4a11628f55a4df523b3ef910160405180910390a3610ec68484846115ab565b6107e681336115b6565b60008281526005602090815260408083206001600160a01b038516845290915290205460ff166106eb5760008281526005602090815260408083206001600160a01b03851684529091529020805460ff1916600117905561110d3390565b6001600160a01b0316816001600160a01b0316837f2f8788117e7eff1d82e926ec794901d17c78024a50270940304540a733656f0d60405160405180910390a45050565b6000306001600160a01b037f0000000000000000000000000000000000000000000000000000000000000000161480156111aa57507f000000000000000000000000000000000000000000000000000000000000000046145b156111d457507f000000000000000000000000000000000000000000000000000000000000000090565b50604080517f00000000000000000000000000000000000000000000000000000000000000006020808301919091527f0000000000000000000000000000000000000000000000000000000000000000828401527f000000000000000000000000000000000000000000000000000000000000000060608301524660808301523060a0808401919091528351808403909101815260c0909201909252805191012090565b60008281526005602090815260408083206001600160a01b038516845290915290205460ff16156106eb5760008281526005602090815260408083206001600160a01b0385168085529252808320805460ff1916905551339285917ff6391f5c32d9c69d2a47ea670b442974b53935d1edc7fd64eb21e047a839171b9190a45050565b8154600090818160058111156113555760006113168461162b565b6113209085612356565b600088815260209020909150869082015463ffffffff16111561134557809150611353565b611350816001612343565b92505b505b808210156113a25760006113698383611713565b600088815260209020909150869082015463ffffffff16111561138e5780915061139c565b611399816001612343565b92505b50611355565b80156113dc576113c5866113b7600184612356565b600091825260209091200190565b5464010000000090046001600160e01b03166113df565b60005b6001600160e01b03169695505050505050565b6106eb828261172e565b6001600160a01b038281166000818152600860208181526040808420805485845282862054949093528787167fffffffffffffffffffffffff00000000000000000000000000000000000000008416811790915590519190951694919391928592917f3134e8a2e6d97e929a7e54011ea5485d7d196dd5f0ba4d4ef95803e8e3fc257f9190a4610ec68284836117c5565b600063ffffffff8211156115095760405162461bcd60e51b815260206004820152602660248201527f53616665436173743a2076616c756520646f65736e27742066697420696e203360448201527f322062697473000000000000000000000000000000000000000000000000000060648201526084016106d8565b5090565b600061055161151a611151565b8360405161190160f01b6020820152602281018390526042810182905260009060620160405160208183030381529060405280519060200120905092915050565b600080600061156c87878787611902565b91509150611579816119c6565b5095945050505050565b6001600160a01b03811660009081526006602052604090208054600181018255905b50919050565b61064a838383611b10565b60008281526005602090815260408083206001600160a01b038516845290915290205460ff166106eb576115e981611b42565b6115f4836020611b54565b60405160200161160592919061237f565b60408051601f198184030181529082905262461bcd60e51b82526106d8916004016120a7565b60008160000361163d57506000919050565b6000600161164a84611cfd565b901c6001901b9050600181848161166357611663612400565b048201901c9050600181848161167b5761167b612400565b048201901c9050600181848161169357611693612400565b048201901c905060018184816116ab576116ab612400565b048201901c905060018184816116c3576116c3612400565b048201901c905060018184816116db576116db612400565b048201901c905060018184816116f3576116f3612400565b048201901c90506107a18182858161170d5761170d612400565b04611d91565b60006117226002848418612416565b6107a190848416612343565b6117388282611da7565b6002546001600160e01b0310156117b75760405162461bcd60e51b815260206004820152603060248201527f4552433230566f7465733a20746f74616c20737570706c79207269736b73206f60448201527f766572666c6f77696e6720766f7465730000000000000000000000000000000060648201526084016106d8565b610ec6600a611e6e83611e7a565b816001600160a01b0316836001600160a01b0316141580156117e75750600081115b1561064a576001600160a01b03831615611875576001600160a01b0383166000908152600960205260408120819061182290611fce85611e7a565b91509150846001600160a01b03167fdec2bacdd2f05b59de34da9b523dff8be42e5e38e818c82fdb0bae774387a724838360405161186a929190918252602082015260400190565b60405180910390a250505b6001600160a01b0382161561064a576001600160a01b038216600090815260096020526040812081906118ab90611e6e85611e7a565b91509150836001600160a01b03167fdec2bacdd2f05b59de34da9b523dff8be42e5e38e818c82fdb0bae774387a72483836040516118f3929190918252602082015260400190565b60405180910390a25050505050565b6000807f7fffffffffffffffffffffffffffffff5d576e7357a4501ddfe92f46681b20a083111561193957506000905060036119bd565b6040805160008082526020820180845289905260ff881692820192909252606081018690526080810185905260019060a0016020604051602081039080840390855afa15801561198d573d6000803e3d6000fd5b5050604051601f1901519150506001600160a01b0381166119b6576000600192509250506119bd565b9150600090505b94509492505050565b60008160048111156119da576119da612438565b036119e25750565b60018160048111156119f6576119f6612438565b03611a435760405162461bcd60e51b815260206004820152601860248201527f45434453413a20696e76616c6964207369676e6174757265000000000000000060448201526064016106d8565b6002816004811115611a5757611a57612438565b03611aa45760405162461bcd60e51b815260206004820152601f60248201527f45434453413a20696e76616c6964207369676e6174757265206c656e6774680060448201526064016106d8565b6003816004811115611ab857611ab8612438565b036107e65760405162461bcd60e51b815260206004820152602260248201527f45434453413a20696e76616c6964207369676e6174757265202773272076616c604482015261756560f01b60648201526084016106d8565b6001600160a01b0383811660009081526008602052604080822054858416835291205461064a929182169116836117c5565b60606105516001600160a01b03831660145b60606000611b6383600261244e565b611b6e906002612343565b67ffffffffffffffff811115611b8657611b86612465565b6040519080825280601f01601f191660200182016040528015611bb0576020820181803683370190505b509050600360fc1b81600081518110611bcb57611bcb612369565b60200101906001600160f81b031916908160001a905350600f60fb1b81600181518110611bfa57611bfa612369565b60200101906001600160f81b031916908160001a9053506000611c1e84600261244e565b611c29906001612343565b90505b6001811115611cae577f303132333435363738396162636465660000000000000000000000000000000085600f1660108110611c6a57611c6a612369565b1a60f81b828281518110611c8057611c80612369565b60200101906001600160f81b031916908160001a90535060049490941c93611ca78161247b565b9050611c2c565b5083156107a15760405162461bcd60e51b815260206004820181905260248201527f537472696e67733a20686578206c656e67746820696e73756666696369656e7460448201526064016106d8565b600080608083901c15611d1257608092831c92015b604083901c15611d2457604092831c92015b602083901c15611d3657602092831c92015b601083901c15611d4857601092831c92015b600883901c15611d5a57600892831c92015b600483901c15611d6c57600492831c92015b600283901c15611d7e57600292831c92015b600183901c156105515760010192915050565b6000818310611da057816107a1565b5090919050565b6001600160a01b038216611dfd5760405162461bcd60e51b815260206004820152601f60248201527f45524332303a206d696e7420746f20746865207a65726f20616464726573730060448201526064016106d8565b8060026000828254611e0f9190612343565b90915550506001600160a01b038216600081815260208181526040808320805486019055518481527fddf252ad1be2c89b69c2b068fc378daa952ba7f163c4a11628f55a4df523b3ef910160405180910390a36106eb600083836115ab565b60006107a18284612343565b82546000908190818115611ec757611e97876113b7600185612356565b60408051808201909152905463ffffffff8116825264010000000090046001600160e01b03166020820152611edc565b60408051808201909152600080825260208201525b905080602001516001600160e01b03169350611efc84868863ffffffff16565b9250600082118015611f145750805163ffffffff1643145b15611f5957611f2283611fda565b611f31886113b7600186612356565b80546001600160e01b03929092166401000000000263ffffffff909216919091179055611fc4565b866040518060400160405280611f6e4361148d565b63ffffffff168152602001611f8286611fda565b6001600160e01b0390811690915282546001810184556000938452602093849020835194909301519091166401000000000263ffffffff909316929092179101555b5050935093915050565b60006107a18284612356565b60006001600160e01b038211156115095760405162461bcd60e51b815260206004820152602760248201527f53616665436173743a2076616c756520646f65736e27742066697420696e203260448201527f323420626974730000000000000000000000000000000000000000000000000060648201526084016106d8565b60006020828403121561206b57600080fd5b81356001600160e01b0319811681146107a157600080fd5b60005b8381101561209e578181015183820152602001612086565b50506000910152565b60208152600082518060208401526120c6816040850160208701612083565b601f01601f19169190910160400192915050565b80356001600160a01b03811681146120f157600080fd5b919050565b6000806040838503121561210957600080fd5b612112836120da565b946020939093013593505050565b60008060006060848603121561213557600080fd5b61213e846120da565b925061214c602085016120da565b9150604084013590509250925092565b60006020828403121561216e57600080fd5b5035919050565b6000806040838503121561218857600080fd5b82359150612198602084016120da565b90509250929050565b6000602082840312156121b357600080fd5b6107a1826120da565b803560ff811681146120f157600080fd5b60008060008060008060c087890312156121e657600080fd5b6121ef876120da565b9550602087013594506040870135935061220b606088016121bc565b92506080870135915060a087013590509295509295509295565b600080600080600080600060e0888a03121561224057600080fd5b612249886120da565b9650612257602089016120da565b95506040880135945060608801359350612273608089016121bc565b925060a0880135915060c0880135905092959891949750929550565b600080604083850312156122a257600080fd5b6122ab836120da565b9150612198602084016120da565b600080604083850312156122cc57600080fd5b6122d5836120da565b9150602083013563ffffffff811681146122ee57600080fd5b809150509250929050565b600181811c9082168061230d57607f821691505b6020821081036115a557634e487b7160e01b600052602260045260246000fd5b634e487b7160e01b600052601160045260246000fd5b808201808211156105515761055161232d565b818103818111156105515761055161232d565b634e487b7160e01b600052603260045260246000fd5b7f416363657373436f6e74726f6c3a206163636f756e74200000000000000000008152600083516123b7816017850160208801612083565b7f206973206d697373696e6720726f6c652000000000000000000000000000000060179184019182015283516123f4816028840160208801612083565b01602801949350505050565b634e487b7160e01b600052601260045260246000fd5b60008261243357634e487b7160e01b600052601260045260246000fd5b500490565b634e487b7160e01b600052602160045260246000fd5b80820281158282048414176105515761055161232d565b634e487b7160e01b600052604160045260246000fd5b60008161248a5761248a61232d565b50600019019056fea26469706673582212202b3415cd0ba605ab1c25ad1b3cb41a1cb0699238e93f2de7e997a8c0c3f5d3c464736f6c63430008120033",
  "linkReferences": {},
  "deployedLinkReferences": {}
}